:100000000C946D010C947F010C947F010C947F0182
:100010000C947F010C947F010C947F010C947F0160
:100020000C947F010C947F010C947F010C947F0150
:100030000C947F010C947F010C947F010C947F0140
:100040000C94F2010C947F010C947F010C947F01BD
:100050000C947F010C947F010C947F010C947F0120
:100060000C947F010C947F011280003A040012006E
:100070000017130018010032B6001902001A7A00A6
:10008000030A000C00003E0000703A007135007257
:10009000110073F000A201001500007A20007B100F
:1000A000007C1E007D35007E5A007F69008076004E
:1000B000818000828800838F0084960085A300865B
:1000C000AF0087C40088D70089E80013C000000093
:1000D000001000000D4000141800A50500AB07003B
:1000E00024950025330026E3009F7800A06800A136
:1000F0000300A6D800A7D800A8F000A99000AA94F1
:100100000013C5003000003100000E61000F4B00ED
:100110001602001E07002102002291002907003369
:100120000B00350B00371D00387100392A003C7870
:10013000004D40004E20006900007410008D4F00FB
:100140008E00008F00009000009100009600009A41
:100150000000B08400B10C00B20E00B38200B80AF7
:1001600000430A0044F00045340046580047280088
:10017000483A005988005A88005B44005C67005D7B
:1001800049005E0E006C0A006D55006E11006F9EF6
:10019000006A400001400002600013C7004F800069
:1001A000508000510000522200535E0054800058DD
:1001B0009E004108003F000075050076E1004C00FC
:1001C000007701003D48004B0900C960005640001F
:1001D0003411003B1200A482009600009730009872
:1001E00020009930009A84009B29009C03009D4CBC
:1001F000009E3F00780400790100C8F000790F00EC
:10020000C80000791000C87E00790A00C880007913
:100210000B00C80100790C00C80F00790D00C82040
:1002200000790900C88000790200C8C00079030085
:10023000C84000790500C83000792600FFFF003E65
:10024000190072110073F10017160018040032A48F
:10025000001902001A7A00030A00FFFF00120000D2
:100260008C000004000040C000146A004F80005061
:100270008000510000522200535E005480003D4037
:1002800000FFFF002A5244592A0000000008000223
:10029000010000030407000000000000000000004F
:1002A0000000250028002B0000000000240027008B
:1002B0002A000404040404040404020202020202E8
:1002C000030303030303010204081020408001021A
:1002D0000408102001020408102011241FBECFEFD3
:1002E000D8E0DEBFCDBF21E0A0E0B1E001C01D92AB
:1002F000A930B207E1F70E944B020C947E030C94E4
:10030000000090E0FC01EA53FD4F24918E549D4F74
:10031000FC018491882399F090E0880F991FFC01DB
:10032000E855FD4FA591B491FC01E256FD4F859132
:1003300094918FB7F894EC91E22BEC938FBF0895D2
:100340008093BB0084E88093BC008091BC0087FF51
:10035000FCCF8091B900887F86130E943C020895EB
:10036000CF93DF93D82FC62F84EA8093BC0080916F
:10037000BC0087FFFCCF8091B900887F883011F0E6
:100380000E943C0268E182E40E94A00168E28D2F95
:100390000E94A00168E28C2F0E94A00184E9809352
:1003A000BC008FE99FE00197F1F700C00000DF91EA
:1003B000CF9108950F931F93CF93DF93EC010F3FDD
:1003C00011F41F3F51F0FE01049131961491612FF9
:1003D000802F0E94B0012396F2CFDF91CF911F9121
:1003E0000F9108951F920F920FB60F9211242F9321
:1003F0003F938F939F93AF93BF938091050190910B
:100400000601A0910701B09108013091040123E099
:10041000230F2D3758F50196A11DB11D209304011E
:100420008093050190930601A0930701B093080102
:100430008091000190910101A0910201B09103010E
:100440000196A11DB11D8093000190930101A0931D
:100450000201B0930301BF91AF919F918F913F91A2
:100460002F910F900FBE0F901F90189526E8230F25
:100470000296A11DB11DD2CF259A90E285B18927A0
:1004800085B92FEF31EE84E0215030408040E1F714
:1004900000C00000F3CF789484B5826084BD84B539
:1004A000816084BD85B5826085BD85B5816085BD6F
:1004B00080916E00816080936E0010928100809127
:1004C00081008260809381008091810081608093AF
:1004D0008100809180008160809380008091B100D4
:1004E00084608093B1008091B00081608093B000FF
:1004F00080917A00846080937A0080917A00826093
:1005000080937A0080917A00816080937A00809154
:100510007A00806880937A001092C100F894239A40
:100520008091B6008F798093B60083E48093B00009
:1005300089E08093B1001092B30087B1807F87B9C2
:100540008AB183708AB92FEF8BE792E921508040FE
:100550009040E1F700C000008091B9008C7F80934B
:10056000B90088E48093B8001092C50081E08093C0
:10057000C4008091C00082608093C00088E18093B5
:10058000C10086E08093C20060E882E10E94B00171
:10059000EFEFF1EE24E0E150F0402040E1F700C041
:1005A000000088E690E00E94DA0160E285E10E94A6
:1005B000B00164E08CE00E94B0018FE392E00E9401
:1005C000DA018DE592E00E94DA016AE081E10E94A1
:1005D000B0018DE00E9481018CE00E948101C7E999
:1005E000D2E003ED12E09FEBE92E92E0F92E20E03D
:1005F000C22E20E0D22EE4E8F2E08091C00085FF18
:10060000FCCF84918093C6008091C00085FFFCCF11
:10061000319684918111F1CF4B9BFECF4B99FECF48
:1006200021EF30E021503109C9F041E451E041505F
:100630005109C1F34A99FECF86B199B18F70907F6D
:10064000892B8093C6008091C00085FFFCCF4A9B18
:10065000FECF4A99FECF4A9BFECFE9CF8FEF91EEB6
:10066000E4E081509040E040E1F700C00000FE016E
:100670008491F8019491F70124912223B9F0882301
:1006800039F0833021F1C8F4813039F1823049F1F9
:10069000E22FF0E0EE0FFF1FE256FD4FA591B4915F
:1006A0008FB7F8942C91922B9C938FBFC114D104D7
:1006B00009F4A1CF0E9400009ECF8730A9F08830B6
:1006C000C9F0843029F7809180008F7D03C080912C
:1006D00080008F7780938000DBCF84B58F7784BDD7
:1006E000D7CF84B58F7DFBCF8091B0008F7780937B
:1006F000B000CECF8091B0008F7DF9CFF894FFCFBE
:00000001FF
